:020000040800F2
:10000000000001201D130008691200086F1200088B
:10001000751200087B120008811200080000000021
:10002000000000000000000000000000871200082F
:100030009512000800000000A3120008B112000889
:100040006D1300086D1300086D1300086D13000890
:100050006D1300086D1300086D1300086D13000880
:100060006D1300086D1300086D1300086D13000870
:100070006D1300086D1300086D1300086D13000860
:100080006D1300086D1300086D13000800000000D8
:100090000000000000000000000000006D130008D8
:1000A0006D1300086D1300086D1300086D13000830
:1000B000BD1200086D1300086D1300086D130008D1
:1000C0006D1300086D1300086D130008D1120008AD
:1000D0006D130008E51200086D1300080000000011
:1000E0006D1300086D1300086D1300080000000078
:1000F0000000000000000000000000006D13000878
:10010000000000006D1300086D1300086D13000857
:1001100000000000000000000000000000000000DF
:100120006D1300086D1300086D1300086D130008AF
:100130006D13000800000000000000000000000037
:100140000000000000000000000000006D13000827
:100150006D1300086D1300086D1300086D1300087F
:100160006D1300086D13000800000000000000007F
:10017000000000000000000000000000000000007F
:10018000000000006D1300080000000000000000E7
:040190006D130008E3
:1001940010B5054C237833B9044B13B10448AFF3BD
:1001A40000800123237010BDA8000020000000007F
:1001B400304C000808B5034B1BB103490348AFF3A7
:1001C400008008BD00000000AC000020304C000896
:1001D40053B94AB9002908BF00281CBF4FF0FF31AA
:1001E4004FF0FF3000F074B9ADF1080C6DE904CEA6
:1001F40000F006F8DDF804E0DDE9022304B07047FE
:100204002DE9F047089D04468E46002B4DD18A42C5
:10021400944669D9B2FA82F252B101FA02F3C2F1F8
:10022400200120FA01F10CFA02FC41EA030E944089
:100234004FEA1C48210CBEFBF8F61FFA8CF708FBAA
:1002440016E341EA034306FB07F199420AD91CEB82
:10025400030306F1FF3080F01F81994240F21C81B4
:10026400023E63445B1AA4B2B3FBF8F008FB1033FC
:1002740044EA034400FB07F7A7420AD91CEB040431
:1002840000F1FF3380F00A81A74240F20781644401
:10029400023840EA0640E41B00261DB1D440002386
:1002A400C5E900433146BDE8F0878B4209D9002DEA
:1002B40000F0EF800026C5E9000130463146BDE874
:1002C400F087B3FA83F6002E4AD18B4202D38242DE
:1002D40000F2F980841A61EB030301209E46002D8D
:1002E400E0D0C5E9004EDDE702B9FFDEB2FA82F2E2
:1002F400002A40F09280A1EB0C014FEA1C471FFA40
:100304008CFE0126200CB1FBF7F307FB131140EA26
:1003140001410EFB03F0884208D91CEB010103F1F3
:10032400FF3802D2884200F2CB804346091AA4B2B5
:10033400B1FBF7F007FB101144EA01440EFB00FE89
:10034400A64508D91CEB040400F1FF3102D2A645EE
:1003540000F2BB800846A4EB0E0440EA03409CE78D
:10036400C6F12007B34022FA07FC4CEA030C20FA3A
:1003740007F401FA06F31C43F9404FEA1C4900FA5A
:1003840006F3B1FBF9F8200C1FFA8CFE09FB1811D7
:1003940040EA014108FB0EF0884202FA06F20BD94A
:1003A4001CEB010108F1FF3A80F08880884240F29A
:1003B4008580A8F102086144091AA4B2B1FBF9F0DE
:1003C40009FB101144EA014100FB0EFE8E4508D9D9
:1003D4001CEB010100F1FF346CD28E456AD902385E
:1003E400614440EA0840A0FB0294A1EB0E01A14243
:1003F400C846A64656D353D05DB1B3EB080261EBB1
:100404000E0101FA07F722FA06F3F1401F43C5E98A
:10041400007100263146BDE8F087C2F12003D840C0
:100424000CFA02FC21FA03F3914001434FEA1C4702
:100434001FFA8CFEB3FBF7F007FB10360B0C43EAF4
:10044400064300FB0EF69E4204FA02F408D91CEBA4
:10045400030300F1FF382FD29E422DD902386344A2
:100464009B1B89B2B3FBF7F607FB163341EA034142
:1004740006FB0EF38B4208D91CEB010106F1FF3891
:1004840016D28B4214D9023E6144C91A46EA004688
:1004940038E72E46284605E70646E3E61846F8E61A
:1004A4004B45A9D2B9EB020864EB0C0E0138A3E763
:1004B4004646EAE7204694E74046D1E7D0467BE744
:1004C400023B614432E7304609E76444023842E7BC
:1004D400704700BF80B582B000AF0346FB71384A55
:1004E400FB791370374B08221A70374B00221A70AD
:1004F400334B1B78012B07D9334B1B7843F008038C
:10050400DAB2314B1A7006E02F4B1B7843F0040328
:10051400DAB22D4B1A7000F085F9322000F098FF02
:10052400284B1B78184600F043F94FF47A7000F01A
:100534008FFF302000F02BF941F2941000F09CF969
:10054400302000F024F941F2941000F095F93020A5
:1005540000F01DF941F2941000F08EF9202000F013
:1005640016F9642000F088F9174B1B7843F0200338
:10057400DBB2184600F0CEF8144B04221A7000F0D7
:1005840075F800F02BF8124B02221A70104B1B78EE
:1005940043F00403DBB2184600F0BCF841F29410B7
:1005A40000F06AF90B49002000F076F80A490120AE
:1005B40000F072F800F01DF800BF0837BD4680BD9A
:1005C400C7000020C8000020C4000020C50000208F
:1005D400C6000020000000200800002080B500AF05
:1005E400012000F097F84FF4FA6000F045F900BFDD
:1005F40080BD80B500AF022000F08CF84FF4FA60A3
:1006040000F03AF900BF80BD90B587B000AF034653
:100614000A46FB711346BB71124B07F108040FCB5A
:1006240084E80F00104B1B78BA799A4203D30E4B1F
:100634001B78013BBB71BB799B0018333B4453F8D7
:10064400103CDAB2FB791344DBB25BB263F07F0394
:100654005BB2DBB2184600F05DF800BF1C37BD4644
:1006640090BD00BF484C0008C700002080B500AF13
:10067400084B1B7843F00403DAB2064B1A70054B9F
:100684001B7843F00803DBB2184600F043F800BFC0
:1006940080BD00BFC500002080B584B000AF034614
:1006A4003960FB71FB7903F00703FB71FB79DB0015
:1006B4005BB243F040035BB2DBB2184600F02AF8A9
:1006C4000023FB6009E0FB683A6813441B78184672
:1006D40000F02EF8FB680133FB60FB68072BF2DDAA
:1006E40000BF00BF1037BD4680BD80B582B000AFEB
:1006F400786006E07B685A1C7A601B78184600F024
:1007040017F87B681B78002BF4D100BF00BF0837B3
:10071400BD4680BD80B582B000AF0346FB71FB7956
:100724000021184600F012F800BF0837BD4680BD0E
:1007340080B582B000AF0346FB71FB7901211846F6
:1007440000F004F800BF0837BD4680BD80B584B012
:1007540000AF03460A46FB711346BB71FB7923F0D5
:100764000F03FB73FB791B01BB73FA7BBB79134348
:10077400DBB2184600F00BF8BA7BBB791343DBB24B
:10078400184600F004F800BF1037BD4680BD80B5A0
:1007940082B000AF0346FB71FB79184600F008F8FD
:1007A400FB79184600F020F800BF0837BD4680BD2D
:1007B40080B586B002AF0346FB71094B1A78FB790A
:1007C4001343DBB2FB7307F10F020A2300930123E7
:1007D4004E21044801F0FEFA00BF1037BD4680BD2B
:1007E400C8000020CC00002080B582B000AF0346D2
:1007F400FB71FB7943F00403DBB21846FFF7D8FF23
:10080400142000F039F8FB7923F00403DBB2184616
:10081400FFF7CEFF142000F02FF800BF0837BD46C5
:1008240080BD000080B400AF114BDB68104A23F098
:100834008073D3600E4BDB680D4A43F08073D36042
:100844000C4B1B680B4A23F001031360094B1B6814
:10085400084A43F001031360064B00225A6000BFAC
:1008640000BF00BF00BFBD465DF8047B704700BFFA
:10087400F0ED00E0001000E080B487B000AF7860D5
:100884000E4B1B680E4AA2FB03239A0C7B6802FBE7
:1008940003F37B610B4B5B683B610A4B5A683B6912
:1008A400D31AFB60FB687A699A42F6D800BF00BF8E
:1008B4001C37BD465DF8047B704700BF9C000020D8
:1008C40083DE1B43001000E080B400AF044BDB6800
:1008D4001B0A03F007031846BD465DF8047B704706
:1008E40000ED00E080B483B000AF0346FB7197F9DC
:1008F4000730002B0BDBFB7903F01F02074997F944
:1009040007305B09012000FA02F241F8232000BFFE
:100914000C37BD465DF8047B704700BF00E100E082
:1009240080B483B000AF03463960FB7197F9073098
:10093400002B0ADB3B68DAB20C4997F90730120145
:10094400D2B20B4483F800230AE03B68DAB20849C8
:10095400FB7903F00F03043B1201D2B20B441A7665
:1009640000BF0C37BD465DF8047B704700E100E032
:1009740000ED00E080B489B000AFF860B9607A603F
:10098400FB6803F00703FB61FB69C3F10703042B56
:1009940028BF0423BB61FB690433062B02D9FB691E
:1009A400033B00E000237B614FF0FF32BB6902FA96
:1009B40003F3DA43BB681A407B699A404FF0FF3176
:1009C4007B6901FA03F3D9437B680B401343184650
:1009D4002437BD465DF8047B7047000080B500AF46
:1009E40000F0C4FC00F01CF800F074F900F0A6F864
:1009F40000F034F900F074F800F0E2F801224FF44A
:100A04000051054801F088F800F0C9F9034802F0E4
:100A1400D7FD00F0DFFAFCE700080240780100206F
:100A240080B594B000AF07F12003302200211846AE
:100A340004F0F4F807F10C0300221A605A609A607B
:100A4400DA601A610023BB60234B1B6C224A43F01B
:100A540080531364204B1B6C03F08053BB60BB6852
:100A640000237B601D4B1B6823F440431B4A43F463
:100A740000431360194B1B6803F440437B607B689D
:100A840002233B620123FB6210233B630023BB630D
:100A940007F12003184601F0A5FC0346002B01D002
:100AA40000F078F90F23FB6000233B6100237B6196
:100AB4000023BB610023FB6107F10C0300211846EE
:100AC40001F008FF0346002B01D000F063F900BFDA
:100AD4005037BD4680BD00BF003802400070004062
:100AE40080B500AF124B134A1A60114B124A5A6078
:100AF4000F4B00229A600E4B0022DA600C4B4FF42D
:100B040080421A610A4B00225A61094B00229A6101
:100B1400074B0022DA61064B00221A62044801F0F6
:100B240015F80346002B01D000F034F900BF80BD56
:100B3400CC00002000540040A086010080B500AF26
:100B44001D4B1E4A1A601C4B00225A601A4B00228D
:100B54009A60194B0022DA60174B00221A61164B77
:100B640000225A61144B00229A61134B00221A622C
:100B7400114B00225A62104B00229A620E4B0A2239
:100B8400DA620D4802F086F80346002B01D000F02B
:100B940001F9FFF799FE0346002200211846FFF7EA
:100BA400E9FE034619462320FFF7BAFE2320FFF788
:100BB40099FE00BF80BD00BF20010020003001402D
:100BC40080B586B000AF07F1080300221A605A60AE
:100BD4009A60DA603B4600221A605A601E4B4FF05E
:100BE40080421A601C4B4FF47A725A601A4B0022EE
:100BF4009A60194B4FF47A52DA60174B00221A614B
:100C0400154B80229A61144802F08AFC0346002B9B
:100C140001D000F0BFF84FF48053BB6007F1080324
:100C240019460D4802F036FE0346002B01D000F0B1
:100C3400B1F800233B6000237B603B46194606481D
:100C440003F032F80346002B01D000F0A3F800BFF4
:100C54001837BD4680BD00BF7801002080B500AFC5
:100C64001A4B1B4A1A60194B4FF4E1325A60174B66
:100C74004FF480529A60154B0022DA60134B4FF404
:100C8400C0621A61114B0C225A61104B00229A6106
:100C94000E4B0022DA610D4803F088F80346002B5E
:100CA40001D000F077F8FFF70FFE03460022002181
:100CB4001846FFF75FFE034619462520FFF730FE6E
:100CC4002520FFF70FFE00BF80BD00BFC00100203C
:100CD4000010014080B58AB000AF07F11403002270
:100CE4001A605A609A60DA601A6100233B61274BEC
:100CF4001B6B264A43F004031363244B1B6B03F062
:100D040004033B613B690023FB60204B1B6B1F4AC0
:100D140043F0800313631D4B1B6B03F08003FB60E4
:100D2400FB680023BB60194B1B6B184A43F001039B
:100D34001363164B1B6B03F00103BB60BB680023FA
:100D44007B60124B1B6B114A43F0020313630F4B7E
:100D54001B6B03F002037B607B6800224FF400519D
:100D64000B4800F0D9FE4FF400537B610123BB61B3
:100D74000023FB6100233B6207F114031946044876
:100D840000F02EFD00BF2837BD4680BD003802406C
:100D94000008024080B400AF72B600BFFEE780B521
:100DA40082B000AF0223FB71FB791846FFF792FB78
:100DB40000F004F800BF0837BD4680BD80B500AF21
:100DC40000210020FFF720FC0248FFF78EFC00BF43
:100DD40080BD00BF7800002080B485B000AF78608B
:100DE400284B93F90030002B13D0274B93F9003094
:100DF400DBB2013BDBB25AB2234B1A70224B93F99C
:100E04000030002B05DC1F4B00221A701E4B002201
:100E14001A701D4B93F900301C4A82FB0312921086
:100E2400DB17D31A5BB2DBB23033BB73164B93F9C7
:100E34000020164B83FB02139910D317C91A0B46D3
:100E44009B000B445B00D31A5BB2DBB230337B7381
:100E54000023FB7306E0FB7B0D4A2021D154FB7B6E
:100E64000133FB73FB7B1F2BF5D9094ABB7B137042
:100E7400074A7B7B537000BF1437BD465DF8047B83
:100E8400704700BF05020020040200206766666602
:100E94007800002080B584B000AF7860474B93F8A9
:100EA4002830002B15D0464B93F82830002B10D156
:100EB400444B93F90030DBB20533DBB25AB2414BF9
:100EC4001A70404B93F900303C2B02DD3D4B3C2221
:100ED4001A703A4B93F82930002B15D0384B93F8FD
:100EE4002930002B10D1374B93F90030DBB2053B8E
:100EF400DBB25AB2334B1A70324B93F90030002BE9
:100F040002DA304B00221A702C4B93F82A30002B53
:100F140010D02B4B93F82A30002B0BD12A4B93F98A
:100F24000030002B03D1274B00221A7002E0264B1D
:100F340000221A70214B93F82B30002B07D0204B42
:100F440093F82B30002B02D11F4B01221A7000237F
:100F5400FB730FE0FB7B1F2B03D8FB7B1B4AD35C8B
:100F640002E0FB7B154AD35CFA7B15498B54FB7B6F
:100F74000133FB73FB7B302BECD9104B93F82730F8
:100F8400002B0CBF01230023DBB21A464FF400519F
:100F94000F4800F0C1FD4FF400510D4800F0A4FDCE
:100FA4000346002B0CBF01230023DBB21A46044B7B
:100FB40083F8202000BF1037BD4680BD10000020FC
:100FC40044000020040200200502002078000020D4
:100FD4000008024080B500AF3123044A04490548A3
:100FE40001F0E2FEFFF7EAFE00BF80BD1000002022
:100FF400440000202001002080B483B000AF00230F
:101004007B60104B5B6C0F4A43F4804353640D4B7D
:101014005B6C03F480437B607B6800233B60094B7B
:101024001B6C084A43F080531364064B1B6C03F09B
:1010340080533B603B6800BF0C37BD465DF8047BC2
:10104400704700BF0038024080B58AB000AF7860B6
:1010540007F1140300221A605A609A60DA601A6178
:101064007B681B68194A93422BD100233B61184BC0
:101074001B6B174A43F002031363154B1B6B03F0FE
:1010840002033B613B69C0237B611223BB610023E4
:10109400FB6103233B6204237B6207F114031946BB
:1010A4000C4800F09DFB0023FB60094B1B6C084AB5
:1010B40043F400131364064B1B6C03F40013FB602E
:1010C400FB6800BF2837BD4680BD00BF0054004008
:1010D400003802400004024080B58AB000AF786056
:1010E40007F1140300221A605A609A60DA601A61E8
:1010F4007B681B681D4A934233D100233B611C4B20
:101104005B6C1B4A43F480535364194B5B6C03F4CC
:1011140080533B613B690023FB60154B1B6B144AF6
:1011240043F001031363124B1B6B03F00103FB60D9
:10113400FB68F0237B610223BB610023FB61032373
:101144003B6205237B6207F114031946094800F04A
:1011540047FB00220021232000F079FA232000F02D
:1011640092FA00BF2837BD4680BD00BF0030014061
:10117400003802400000024080B584B000AF7860BF
:101184007B681B68B3F1804F15D10023FB600C4BC7
:101194001B6C0B4A43F001031364094B1B6C03F0F3
:1011A4000103FB60FB68002200211C2000F04FFAC1
:1011B4001C2000F068FA00BF1037BD4680BD00BF98
:1011C4000038024080B58AB000AF786007F114039C
:1011D40000221A605A609A60DA601A617B681B68A0
:1011E4001D4A934234D100233B611C4B5B6C1B4A68
:1011F40043F010035364194B5B6C03F010033B6121
:101204003B690023FB60154B1B6B144A43F001033D
:101214001363124B1B6B03F00103FB60FB684FF479
:10122400C0637B610223BB610023FB6103233B6238
:1012340007237B6207F114031946094800F0D0FA2A
:1012440000220021252000F002FA252000F01BFADC
:1012540000BF2837BD4680BD001001400038024061
:101264000000024080B400AFFEE780B400AFFEE7A8
:1012740080B400AFFEE780B400AFFEE780B400AFF7
:10128400FEE780B400AF00BFBD465DF8047B704745
:1012940080B400AF00BFBD465DF8047B704780B4E6
:1012A40000AF00BFBD465DF8047B704780B500AF5A
:1012B40000F0AEF800BF80BD80B500AF024802F078
:1012C400E1F900BF80BD00BF7801002080B500AF08
:1012D400024801F0FDFD00BF80BD00BF20010020D9
:1012E40080B500AF024802F0AFFD00BF80BD00BF73
:1012F400C001002080B400AF064BD3F88830054A03
:1013040043F47003C2F8883000BFBD465DF8047B27
:10131400704700BF00ED00E0DFF834D00D480E49FF
:101324000E4A002302E0D458C4500433C4188C423B
:10133400F9D30B4A0B4C002301E013600432A242A0
:10134400FBD3FFF7D7FF03F045FCFFF747FB7047DC
:101354000000012000000020A8000020804C0008AC
:10136400A80000200C020020FEE7000080B500AFBA
:101374000E4B1B680D4A43F4007313600B4B1B6840
:101384000A4A43F480631360084B1B68074A43F41A
:1013940080731360032000F04FF90F2000F008F869
:1013A400FFF72AFE0023184680BD00BF003C024020
:1013B40080B582B000AF7860124B1A68124B1B786C
:1013C40019464FF47A73B3FBF1F3B2FBF3F3184607
:1013D40000F067F90346002B01D001230EE07B687F
:1013E4000F2B0AD8002279684FF0FF3000F02FF954
:1013F400064A7B681360002300E00123184608377F
:10140400BD4680BD9C000020A4000020A000002058
:1014140080B400AF064B1B781A46064B1B68134476
:10142400044A136000BFBD465DF8047B704700BFEB
:10143400A40000200802002080B400AF034B1B6806
:101444001846BD465DF8047B704700BF08020020C3
:1014540080B584B000AF7860FFF7EEFFB8607B68BA
:10146400FB60FB68B3F1FF3F05D00A4B1B781A46BB
:10147400FB681344FB6000BFFFF7DEFF0246BB6856
:10148400D31AFA689A42F7D800BF00BF1037BD4696
:1014940080BD00BFA400002080B485B000AF786098
:1014A4007B6803F00703FB600C4BDB68BB60BA6826
:1014B4004FF6FF031340BB60FB681A02BB6813437B
:1014C40043F0BF6343F40033BB60044ABB68D3609A
:1014D40000BF1437BD465DF8047B704700ED00E0A3
:1014E40080B400AF044BDB681B0A03F00703184603
:1014F400BD465DF8047B704700ED00E080B483B026
:1015040000AF0346FB7197F90730002B0BDBFB7927
:1015140003F01F02074997F907305B09012000FA1D
:1015240002F241F8232000BF0C37BD465DF8047B6E
:10153400704700BF00E100E080B483B000AF034611
:101544003960FB7197F90730002B0ADB3B68DAB28C
:101554000C4997F907301201D2B20B4483F80023E7
:101564000AE03B68DAB20849FB7903F00F03043B55
:101574001201D2B20B441A7600BF0C37BD465DF897
:10158400047B704700E100E000ED00E080B489B026
:1015940000AFF860B9607A60FB6803F00703FB6191
:1015A400FB69C3F10703042B28BF0423BB61FB6958
:1015B4000433062B02D9FB69033B00E000237B6163
:1015C4004FF0FF32BB6902FA03F3DA43BB681A40F7
:1015D4007B699A404FF0FF317B6901FA03F3D943E9
:1015E4007B680B40134318462437BD465DF8047BE3
:1015F4007047000080B582B000AF78607B68013B23
:10160400B3F1807F01D301230FE00A4A7B68013BD9
:1016140053600F214FF0FF30FFF78EFF054B002280
:101624009A60044B07221A60002318460837BD4607
:1016340080BD00BF10E000E080B582B000AF7860EC
:101644007868FFF729FF00BF0837BD4680BD80B525
:1016540086B000AF0346B9607A60FB7300237B61F8
:10166400FFF73EFF78617A68B9687869FFF78EFF03
:10167400024697F90F3011461846FFF75DFF00BF89
:101684001837BD4680BD80B582B000AF0346FB71FC
:1016940097F907301846FFF731FF00BF0837BD46FA
:1016A40080BD80B582B000AF78607868FFF7A2FF94
:1016B400034618460837BD4680BD80B584B000AFE8
:1016C40078607B689B6DFB60FFF7B6FEB8607B6853
:1016D40093F83530DBB2022B08D07B6880225A6540
:1016E4007B68002283F83420012352E07B681B6866
:1016F4001A687B681B6822F016021A607B681B68F4
:101704005A697B681B6822F080025A617B681B6CF3
:10171400002B03D17B689B6C002B07D07B681B6874
:101724001A687B681B6822F008021A607B681B68D1
:101734001A687B681B6822F001021A6013E0FFF745
:101744007BFE0246BB68D31A052B0CD97B6820228A
:101754005A657B68032283F835207B68002283F86E
:101764003420032315E07B681B681B6803F0010326
:10177400002BE4D17B68DB6D3F229A40FB689A60C2
:101784007B68012283F835207B68002283F83420AB
:10179400002318461037BD4680BD80B483B000AF27
:1017A40078607B6893F83530DBB2022B04D07B6819
:1017B40080225A6501230CE07B68052283F83520DA
:1017C4007B681B681A687B681B6822F001021A6038
:1017D400002318460C37BD465DF8047B70470000B3
:1017E40080B489B000AF7860396000237B61002346
:1017F4003B610023BB610023FB6159E10122FB69CA
:1018040002FA03F37B613B681B687A6913403B610E
:101814003A697B699A4240F048813B685B6803F00F
:101824000303012B05D03B685B6803F00303022B21
:1018340030D17B689B68BB61FB695B00032202FAC1
:1018440003F3DB43BA691340BB613B68DA68FB69A5
:101854005B0002FA03F3BA691343BB617B68BA699C
:101864009A607B685B68BB610122FB6902FA03F33F
:10187400DB43BA691340BB613B685B681B0903F037
:101884000102FB6902FA03F3BA691343BB617B6883
:10189400BA695A603B685B6803F00303032B17D0F3
:1018A4007B68DB68BB61FB695B00032202FA03F31C
:1018B400DB43BA691340BB613B689A68FB695B0010
:1018C40002FA03F3BA691343BB617B68BA69DA604D
:1018D4003B685B6803F00303022B23D1FB69DA083E
:1018E4007B68083253F82230BB61FB6903F00703BD
:1018F4009B000F2202FA03F3DB43BA691340BB6176
:101904003B681A69FB6903F007039B0002FA03F3BF
:10191400BA691343BB61FB69DA087B680832B969A9
:1019240043F822107B681B68BB61FB695B000322E0
:1019340002FA03F3DB43BA691340BB613B685B689B
:1019440003F00302FB695B0002FA03F3BA69134371
:10195400BB617B68BA691A603B685B6803F4403317
:10196400002B00F0A2800023FB60574B5B6C564AAF
:1019740043F480435364544B5B6C03F48043FB6037
:10198400FB68524AFB699B08023352F82330BB615F
:10199400FB6903F003039B000F2202FA03F3DB430A
:1019A400BA691340BB617B68494A934219D07B688A
:1019B400484A934213D07B68474A93420DD07B68D0
:1019C400464A934207D07B68454A934201D1042397
:1019D40008E0072306E0032304E0022302E00123D6
:1019E40000E00023FA6902F0030292009340BA690E
:1019F4001343BB613549FB699B080233BA6941F85B
:101A04002320384B9B68BB613B69DB43BA691340B5
:101A1400BB613B685B6803F48013002B03D0BA6995
:101A24003B691343BB612F4ABB6993602D4BDB6851
:101A3400BB613B69DB43BA691340BB613B685B68CC
:101A440003F40013002B03D0BA693B691343BB6151
:101A5400244ABB69D360234B5B68BB613B69DB43AE
:101A6400BA691340BB613B685B6803F40033002B25
:101A740003D0BA693B691343BB611A4ABB6953601B
:101A8400184B1B68BB613B69DB43BA691340BB61FC
:101A94003B685B6803F48033002B03D0BA693B696D
:101AA4001343BB610F4ABB691360FB690133FB61DC
:101AB400FB690F2B7FF6A2AE00BF00BF2437BD46E3
:101AC4005DF8047B704700BF0038024000380140D5
:101AD400000002400004024000080240000C0240E2
:101AE40000100240003C014080B485B000AF786033
:101AF4000B467B807B681A697B881340002B02D0DD
:101B04000123FB7301E00023FB73FB7B18461437AE
:101B1400BD465DF8047B704780B483B000AF786045
:101B24000B467B8013467B707B78002B03D07A882E
:101B34007B689A6103E07B881A047B689A6100BF22
:101B44000C37BD465DF8047B7047000080B584B057
:101B540000AF78607B68002B01D101232BE17B6807
:101B640093F83D30DBB2002B06D17B68002283F86A
:101B74003C207868FFF768FA7B68242283F83D20CC
:101B84007B681B681A687B681B6822F001021A6074
:101B94007B681B681A687B681B6842F400421A6001
:101BA4007B681B681A687B681B6822F400421A6011
:101BB40001F048F8F8607B685B68814A934207D873
:101BC400FB68804A934294BF01230023DBB206E002
:101BD400FB687D4A934294BF01230023DBB2002BB0
:101BE40001D00123E7E0FB68784AA2FB03239B0CA6
:101BF400BB607B681B685B6823F03F017B681B68E4
:101C0400BA680A435A607B681B681B6A23F03F0169
:101C14007B685B686A4A934202D8BB68013309E077
:101C2400BB684FF4967202FB03F3694AA2FB0323D9
:101C34009B0901337A6812680B4313627B681B6843
:101C4400DB6923F44F4222F0FF027B685B685C4946
:101C54008B4219D8FB68591E7B685B685B00B1FB3B
:101C6400F3F3591C40F6FC730B40002B0AD0FB68BD
:101C7400591E7B685B685B00B1FBF3F30133C3F36C
:101C84000B0351E004234FE07B689B68002B11D1C8
:101C9400FB68581E7B6859680B465B000B44B0FB1D
:101CA400F3F30133C3F30B03002B0CBF0123002315
:101CB400DBB212E0FB68581E7B6859680B469B0038
:101CC4000B4499000B44B0FBF3F30133C3F30B0350
:101CD400002B0CBF01230023DBB2002B01D0012316
:101CE40022E07B689B68002B0ED1FB68581E7B6842
:101CF40059680B465B000B44B0FBF3F30133C3F3A9
:101D04000B0343F400430FE0FB68581E7B685968DB
:101D14000B469B000B4499000B44B0FBF3F30133D7
:101D2400C3F30B0343F44043796809681343CB615D
:101D34007B681B681B6823F0C0017B68DA697B68D9
:101D44001B6A1A437B681B680A431A607B681B681A
:101D54009B6823F4034323F0FF037A6811697A68CC
:101D6400D26811437A6812680B4393607B681B68DE
:101D7400DB6823F0FF017B685A697B689B691A431F
:101D84007B681B680A43DA607B681B681A687B6897
:101D94001B6842F001021A607B6800221A647B68A7
:101DA400202283F83D207B6800221A637B6800228E
:101DB40083F83E20002318461037BD4680BD00BF7F
:101DC400A08601007F841E00FF083D0083DE1B43C4
:101DD400D34D621080B588B002AFF8607A601A46BD
:101DE4000B467B8113463B81FFF726FB7861FB683A
:101DF40093F83D30DBB2202B40F0E0807B69009308
:101E0400192301227049F86800F064F90346002B95
:101E140001D00223D3E0FB6893F83C30012B01D1BD
:101E24000223CCE0FB68012283F83C20FB681B689A
:101E34001B6803F00103012B07D0FB681B681A68B9
:101E4400FB681B6842F001021A60FB681B681A6891
:101E5400FB681B6822F400621A60FB68212283F885
:101E64003D20FB68102283F83E20FB6800221A64A0
:101E7400FB687A685A62FB683A895A85FB685B8D0D
:101E84009AB2FB681A85FB68504ADA6279897B69E1
:101E94003A6AF86800F09CF80346002B01D001234D
:101EA4008DE000233B61FB681B685B693B61FB6859
:101EB4001B689B693B613B6966E07A69396AF8682B
:101EC40000F0DEF90346002B0DD0FB681B6C042BDD
:101ED40007D1FB681B681A68FB681B6842F4007230
:101EE4001A6001236BE0FB685B6A1A78FB681B6865
:101EF4001A61FB685B6A5A1CFB685A62FB685B8D5B
:101F04009BB2013B9AB2FB685A85FB681B8D013B6F
:101F14009AB2FB681A85FB681B685B6903F00403CB
:101F2400042B1BD1FB681B8D002B17D0FB685B6A4D
:101F34001A78FB681B681A61FB685B6A5A1CFB68A9
:101F44005A62FB685B8D9BB2013B9AB2FB685A856F
:101F5400FB681B8D013B9AB2FB681A857A69396A62
:101F6400F86800F0CEF90346002B0DD0FB681B6C1B
:101F7400042B07D1FB681B681A68FB681B6842F4D2
:101F840000721A6001231AE0FB681B8D002B94D1A8
:101F9400FB681B681A68FB681B6842F400721A60CD
:101FA400FB68202283F83D20FB68002283F83E2052
:101FB400FB68002283F83C20002300E0022318463B
:101FC4001837BD4680BD00BF020010000000FFFFAF
:101FD40080B588B002AFF8607A603B600B467B81C5
:101FE400FB68DB6A7B617B69082B06D07B69012B6C
:101FF40003D07B6913F5803F08D1FB681B681A681E
:10200400FB681B6842F480721A600BE0FB681B6B70
:10201400122B07D1FB681B681A68FB681B6842F423
:1020240080721A603B6800937B6800224FF00111B4
:10203400F86800F04FF80346002B0DD0FB681B68CE
:102044001B6803F48073B3F5807F03D1FB684FF4FE
:1020540000721A64032335E0FB681B69B3F5804FF3
:1020640008D17B89DBB21A46FB681B6802F0FE02CA
:102074001A611BE07B89DB11DBB203F00603DBB2E0
:1020840063F00F03DAB2FB681B681A613B687A6875
:102094000E49F86800F075F80346002B01D00123BF
:1020A40010E07B89DAB2FB681B681A613B687A68C6
:1020B4000749F86800F065F80346002B01D00123B6
:1020C40000E0002318461837BD4680BD0800010013
:1020D4000200010080B584B000AFF860B9603B60D5
:1020E4001346FB7125E03B68B3F1FF3F21D0FFF7B6
:1020F400A3F90246BB69D31A3A689A4202D33B68F1
:10210400002B16D1FB6800221A63FB68202283F897
:102114003D20FB68002283F83E20FB681B6C43F0E3
:102124002002FB681A64FB68002283F83C20012328
:1021340023E0BB681B0CDBB2012B0DD1FB681B68D1
:102144005B69DA43BB6813409BB2002B0CBF0123CD
:102154000023DBB21A460CE0FB681B689B69DA4378
:10216400BB6813409BB2002B0CBF01230023DBB2DE
:102174001A46FB799A42B6D0002318461037BD465A
:1021840080BD80B584B000AFF860B9607A603B6010
:1021940051E0FB681B685B6903F48063B3F5806FEF
:1021A40023D1FB681B681A68FB681B6842F4007241
:1021B4001A60FB681B686FF480625A61FB68002236
:1021C4001A63FB68202283F83D20FB68002283F811
:1021D4003E20FB681B6C43F00402FB681A64FB6836
:1021E400002283F83C20012346E07B68B3F1FF3FE3
:1021F40021D0FFF721F902463B68D31A7A689A4244
:1022040002D37B68002B16D1FB6800221A63FB689B
:10221400202283F83D20FB68002283F83E20FB68DF
:102224001B6C43F02002FB681A64FB68002283F8ED
:102234003C20012320E0BB681B0CDBB2012B0CD13A
:10224400FB681B685B69DA43BB6813409BB2002BD5
:1022540014BF01230023DBB20BE0FB681B689B69FE
:10226400DA43BB6813409BB2002B14BF0123002345
:10227400DBB2002B8DD1002318461037BD4680BD3C
:1022840080B584B000AFF860B9607A602DE0F8687A
:1022940000F078F80346002B01D001232DE0BB6841
:1022A400B3F1FF3F21D0FFF7C7F802467B68D31A8A
:1022B400BA689A4202D3BB68002B16D1FB6800228D
:1022C4001A63FB68202283F83D20FB68002283F810
:1022D4003E20FB681B6C43F02002FB681A64FB6819
:1022E400002283F83C20012307E0FB681B685B693C
:1022F40003F08003802BCAD1002318461037BD4653
:1023040080BD80B584B000AFF860B9607A602DE01C
:10231400F86800F037F80346002B01D001232DE0C4
:10232400BB68B3F1FF3F21D0FFF786F802467B6814
:10233400D31ABA689A4202D3BB68002B16D1FB6841
:1023440000221A63FB68202283F83D20FB680022E8
:1023540083F83E20FB681B6C43F02002FB681A6480
:10236400FB68002283F83C20012307E0FB681B681C
:102374005B6903F00403042BCAD100231846103709
:10238400BD4680BD80B483B000AF78607B681B68B5
:102394005B6903F48063B3F5806F1BD17B681B68B2
:1023A4006FF480625A617B6800221A637B68202282
:1023B40083F83D207B68002283F83E207B681B6CF9
:1023C40043F004027B681A647B68002283F83C2093
:1023D400012300E0002318460C37BD465DF8047B5A
:1023E4007047000080B586B000AF78607B68002B32
:1023F40001D1012367E27B681B6803F00103002B12
:1024040075D0884B9B6803F00C03042B0CD0854BD0
:102414009B6803F00C03082B12D1824B5B6803F416
:102424008003B3F5800F0BD17E4B1B6803F400339C
:10243400002B5BD07B685B68002B57D1012342E201
:102444007B685B68B3F5803F06D1764B1B68754AA1
:1024540043F4803313601DE07B685B68B3F5A02F01
:102464000CD1704B1B686F4A43F4802313606D4B8F
:102474001B686C4A43F4803313600BE0694B1B68A0
:10248400684A23F480331360664B1B68654A23F45F
:10249400802313607B685B68002B13D0FEF7CCFFAE
:1024A400386108E0FEF7C8FF02463B69D31A642B83
:1024B40001D9032307E25B4B1B6803F40033002BB1
:1024C400F0D014E0FEF7B8FF386108E0FEF7B4FF7F
:1024D40002463B69D31A642B01D90323F3E1514B20
:1024E4001B6803F40033002BF0D100E000BF7B68CD
:1024F4001B6803F00203002B63D04A4B9B6803F074
:102504000C03002B0BD0474B9B6803F00C03082BE8
:102514001CD1444B5B6803F48003002B16D1414B60
:102524001B6803F00203002B05D07B68DB68012BDA
:1025340001D00123C7E13B4B1B6823F0F8027B6801
:102544001B69DB00374913430B603AE07B68DB68A7
:10255400002B20D0344B01221A60FEF76DFF386146
:1025640008E0FEF769FF02463B69D31A022B01D942
:102574000323A8E12B4B1B6803F00203002BF0D0CC
:10258400284B1B6823F0F8027B681B69DB00254994
:1025940013430B6015E0244B00221A60FEF74CFF36
:1025A400386108E0FEF748FF02463B69D31A022B64
:1025B40001D9032387E11B4B1B6803F00203002BA3
:1025C400F0D17B681B6803F00803002B36D07B68CE
:1025D4005B69002B16D0154B01221A60FEF72CFF05
:1025E400386108E0FEF728FF02463B69D31A022B44
:1025F40001D9032367E10B4B5B6F03F00203002B4C
:10260400F0D01BE0094B00221A60FEF715FF386179
:102614000EE0FEF711FF02463B69D31A022B07D9DD
:10262400032350E10038024000004742800E474235
:10263400884B5B6F03F00203002BEAD17B681B68B5
:1026440003F00403002B00F097800023FB75814BFB
:102654001B6C03F08053002B0FD10023BB607D4B18
:102664001B6C7C4A43F0805313647A4B1B6C03F05D
:102674008053BB60BB680123FB75774B1B6803F475
:102684008073002B18D1744B1B68734A43F4807316
:102694001360FEF7D1FE386108E0FEF7CDFE024676
:1026A4003B69D31A022B01D903230CE16A4B1B6843
:1026B40003F48073002BF0D07B689B68012B06D158
:1026C400644B1B6F634A43F0010313671CE07B6890
:1026D4009B68052B0CD15F4B1B6F5E4A43F00403D0
:1026E40013675C4B1B6F5B4A43F0010313670BE0FA
:1026F400584B1B6F574A23F001031367554B1B6F4D
:10270400544A23F0040313677B689B68002B15D09D
:10271400FEF792FE38610AE0FEF78EFE02463B6940
:10272400D31A41F28832934201D90323CBE0494BB7
:102734001B6F03F00203002BEED014E0FEF77CFEC7
:1027440038610AE0FEF778FE02463B69D31A41F28B
:102754008832934201D90323B5E03E4B1B6F03F04B
:102764000203002BEED1FB7D012B05D1394B1B6CF1
:10277400384A23F0805313647B689B69002B00F074
:10278400A180344B9B6803F00C03082B5CD07B685E
:102794009B69022B41D1314B00221A60FEF74CFE9B
:1027A400386108E0FEF748FE02463B69D31A022B63
:1027B40001D9032387E0274B1B6803F00073002B28
:1027C400F0D17B68DA697B681B6A1A437B685B6AB1
:1027D4009B011A437B689B6A5B08013B1B041A43F9
:1027E4007B68DB6A1B061B4913434B601B4B0122AE
:1027F4001A60FEF721FE386108E0FEF71DFE02466E
:102804003B69D31A022B01D903235CE0114B1B68EB
:1028140003F00073002BF0D054E0104B00221A6038
:10282400FEF70AFE386108E0FEF706FE02463B6941
:10283400D31A022B01D9032345E0064B1B6803F08E
:102844000073002BF0D13DE07B689B69012B07D11D
:10285400012338E000380240007000406000474225
:102864001B4B5B68FB607B689B69012B28D0FB6872
:1028740003F480027B68DB699A4221D1FB6803F090
:102884003F027B681B6A9A421AD1FA6847F6C07302
:1028940013407A68526A9201934211D1FB6803F49F
:1028A40040327B689B6A5B08013B1B049A4207D158
:1028B400FB6803F070627B68DB6A1B069A4201D0F6
:1028C400012300E0002318461837BD4680BD00BF31
:1028D4000038024080B584B000AF786039607B680E
:1028E400002B01D10123CCE0684B1B6803F00703E4
:1028F4003A689A420CD9654B3A68D2B21A70634B63
:102904001B6803F007033A689A4201D00123B8E038
:102914007B681B6803F00203002B20D07B681B68D4
:1029240003F00403002B05D0594B9B68584A43F429
:10293400E05393607B681B6803F00803002B05D009
:10294400534B9B68524A43F460439360504B9B68DB
:1029540023F0F0027B689B684D4913438B607B68CE
:102964001B6803F00103002B44D07B685B68012BD8
:1029740007D1474B1B6803F40033002B19D1012303
:102984007FE07B685B68022B03D07B685B68032B6A
:1029940007D13F4B1B6803F00073002B09D10123BF
:1029A4006FE03B4B1B6803F00203002B01D10123B2
:1029B40067E0374B9B6823F003027B685B6834490C
:1029C40013438B60FEF738FDF8600AE0FEF734FD30
:1029D4000246FB68D31A41F28832934201D9032399
:1029E4004FE02B4B9B6803F00C027B685B689B00F9
:1029F4009A42EBD1254B1B6803F007033A689A42CD
:102A04000CD2224B3A68D2B21A70204B1B6803F0E6
:102A140007033A689A4201D0012332E07B681B68BD
:102A240003F00403002B08D0194B9B6823F4E052F5
:102A34007B68DB68164913438B607B681B6803F073
:102A44000803002B09D0124B9B6823F460427B6877
:102A54001B69DB000E4913438B6000F021F802462A
:102A64000B4B9B681B0903F00F030A49CB5C22FA4A
:102A740003F3094A1360094B1B681846FEF798FCD8
:102A8400002318461037BD4680BD00BF003C0240FD
:102A940000380240584C00089C000020A000002090
:102AA4002DE9B04F90B000AF00237B630023FB639C
:102AB40000233B630023BB63594B9B6803F00C0367
:102AC400082B0DD0082B00F2A180002B02D0042B80
:102AD40003D09BE0534BBB639BE0534BBB6398E039
:102AE4004F4B5B6803F03F037B634D4B5B6803F420
:102AF4008003002B28D04A4B5B689B0900223B6271
:102B04007A623B6AC3F308000021474B03FB01F2DE
:102B1400002300FB03F31344434AA0FB0212FA62AE
:102B24000A46BA62FA6A1344FB627B6B0022BB61F9
:102B3400FA61D7E90623D7E90A01FDF749FB024602
:102B44000B461346FB6353E0354B5B689B0900223D
:102B54003B617A613B69C3F3080A4FF0000B5246AC
:102B64005B464FF000004FF00001590141EAD26189
:102B7400500102460B46B2EB0A0863EB0B094FF017
:102B840000024FF000034FEA891343EA98634FEAC7
:102B94008812B2EB080463EB09054FF000024FF012
:102BA4000003EB0043EA5473E20014461D4614EBA1
:102BB4000A033B6045EB0B037B604FF000024FF0D0
:102BC4000003D7E9004529468B02214643EA915385
:102BD40021468A02104619467B6B0022BB60FA60CC
:102BE400D7E90223FDF7F4FA02460B461346FB63CA
:102BF4000B4B5B681B0C03F0030301335B003B636B
:102C0400FA6B3B6BB2FBF3F3BB6302E0054BBB63B4
:102C140000BFBB6B18464037BD46BDE8B08F00BF50
:102C2400003802400024F40040787D0180B400AFF5
:102C3400034B1B681846BD465DF8047B704700BF14
:102C44009C00002080B500AFFFF7F0FF0246054B63
:102C54009B689B0A03F007030349CB5C22FA03F346
:102C6400184680BD00380240684C000880B500AFAB
:102C7400FFF7DCFF0246054B9B685B0B03F0070381
:102C84000349CB5C22FA03F3184680BD00380240A6
:102C9400684C000880B582B000AF78607B68002B78
:102CA40001D101237BE07B685B6A002B08D17B6840
:102CB4005B68B3F5827F09D07B680022DA6105E0A6
:102CC4007B6800221A617B6800225A617B680022BB
:102CD4009A627B6893F85130DBB2002B06D17B6893
:102CE400002283F850207868FEF7F6F97B68022208
:102CF40083F851207B681B681A687B681B6822F084
:102D040040021A607B685B6803F482727B689B688C
:102D140003F404431A437B68DB6803F400631A4337
:102D24007B681B6903F002031A437B685B6903F049
:102D340001031A437B689B6903F400731A437B689D
:102D4400DB6903F038031A437B681B6A03F08003D2
:102D540042EA03017B689B6A03F400527B681B68A8
:102D64000A431A607B689B691B0C03F004017B68AF
:102D74005B6A03F010027B681B680A435A607B6835
:102D84001B68DA697B681B6822F40062DA617B687D
:102D940000225A657B68012283F8512000231846DB
:102DA4000837BD4680BD000080B487B000AFF8602E
:102DB400B9607A607B800023FB75FB6893F8503020
:102DC400012B01D1022375E0FB68012283F8502016
:102DD400FB6893F85130BB75FB685B683B61BB7D56
:102DE400012B0DD03B69B3F5827F06D1FB689B684C
:102DF400002B02D1BB7D042B02D00223FB7554E0CF
:102E0400BB68002B05D07B68002B02D07B88002B8D
:102E140002D10123FB7548E0FB6893F85130DBB223
:102E2400042B03D0FB68052283F85120FB680022A1
:102E34005A65FB68BA681A63FB687A889A86FB68E5
:102E44007A88DA86FB687A689A63FB687A889A8754
:102E5400FB687A88DA87FB68DB68002B06D0FB689E
:102E6400174A1A64FB68174A5A6405E0FB68164A55
:102E74001A64FB68154A5A64FB681B685A68FB6845
:102E84001B6842F0E0025A60FB681B681B6803F091
:102E94004003402B08D0FB681B681A68FB681B685A
:102EA40042F040021A6000E000BFFB68002283F891
:102EB4005020FB7D18461C37BD465DF8047B7047E7
:102EC400E931000849320008253100088931000839
:102ED40080B588B000AF78607B681B685B68FB6175
:102EE4007B681B689B68BB61BB699B0903F001039A
:102EF400002B0FD1BB6903F00103002B0AD0FB693F
:102F04009B0903F00103002B04D07B681B6C7868D9
:102F14009847D7E0BB695B0803F00103002B0AD094
:102F2400FB69DB0903F00103002B04D07B685B6CB5
:102F340078689847C6E0BB695B0903F00103002B7E
:102F44000CD1BB699B0903F00103002B06D1BB69BB
:102F54001B0A03F00103002B00F0B480FB695B093A
:102F640003F00103002B00F0AD80BB699B0903F063
:102F74000103002B23D07B6893F85130DBB2032B81
:102F840011D07B685B6D43F004027B685A650023B3
:102F94007B617B681B68DB687B617B681B689B6863
:102FA4007B617B690BE000233B617B681B68DB680A
:102FB4003B617B681B689B683B613B6982E0BB6942
:102FC4005B0903F00103002B14D07B685B6D43F0B5
:102FD40001027B685A650023FB607B681B689B6861
:102FE400FB607B681B681A687B681B6822F04002E0
:102FF4001A60FB68BB691B0A03F00103002B0CD0A9
:103004007B685B6D43F008027B685A650023BB60F4
:103014007B681B689B68BB60BB687B685B6D002B2F
:103024004FD07B681B685A687B681B6822F0E002FB
:103034005A607B68012283F85120FB6903F0020384
:10304400002B04D1FB6903F00103002B34D07B680F
:103054001B685A687B681B6822F003025A607B680D
:10306400DB6C002B11D07B68DB6C184A1A657B681B
:10307400DB6C1846FEF791FB0346002B05D07B68FA
:103084005B6D43F040027B685A657B689B6C002B48
:1030940016D07B689B6C0D4A1A657B689B6C18463E
:1030A400FEF77BFB0346002B0AD07B685B6D43F085
:1030B40040027B685A6503E0786800F013F800E08A
:1030C40000BF00BF2037BD4680BD00BFFD300008F3
:1030D40080B483B000AF786000BF0C37BD465DF8A4
:1030E400047B704780B483B000AF786000BF0C37B6
:1030F400BD465DF8047B704780B584B000AF78604E
:103104007B689B6BFB60FB680022DA87FB6800220C
:10311400DA86F868FFF7E6FF00BF1037BD4680BDCA
:1031240080B582B000AF78607B681B6803F10C0245
:103134007B689B6B1278D2B21A707B689B6B5A1CAB
:103144007B689A637B68DB8F9BB2013B9AB27B6896
:10315400DA877B68DB8F9BB2002B0FD17B681B68FF
:103164005A687B681B6822F060025A607B68DB8EB9
:103174009BB2002B02D1786800F05EF900BF0837DB
:10318400BD4680BD80B582B000AF78607B681A6BA5
:103194007B681B680C3312781A707B681B6B5A1C93
:1031A4007B681A637B68DB8E9BB2013B9AB27B68B7
:1031B400DA867B68DB8E9BB2002B0FD17B681B68A1
:1031C4005A687B681B6822F080025A607B68DB8F38
:1031D4009BB2002B02D1786800F02EF900BF0837AB
:1031E400BD4680BD80B582B000AF78607B681B6847
:1031F400DA687B689B6B92B21A807B689B6B9A1C23
:103204007B689A637B68DB8F9BB2013B9AB27B68D5
:10321400DA877B68DB8F9BB2002B0FD17B681B683E
:103224005A687B681B6822F040025A607B68DB8E18
:103234009BB2002B02D1786800F0FEF800BF08377B
:10324400BD4680BD80B582B000AF78607B681B6BE3
:103254001A887B681B68DA607B681B6B9A1C7B6826
:103264001A637B68DB8E9BB2013B9AB27B68DA8679
:103274007B68DB8E9BB2002B0FD17B681B685A687E
:103284007B681B6822F080025A607B68DB8F9BB2EC
:10329400002B02D1786800F0CFF800BF0837BD4694
:1032A40080BD000080B588B000AFF860B9603B60B5
:1032B4001346FB71FEF7C0F80246BB6A9B1A3A68D4
:1032C4001344FB61FEF7B8F8B861394B1B685B0126
:1032D4001B0DFA6902FB03F37B6154E03B68B3F115
:1032E400FF3F50D0FEF7A8F80246BB69D31AFA692B
:1032F4009A4202D9FB69002B3DD1FB681B685A68CE
:10330400FB681B6822F0E0025A60FB685B68B3F557
:10331400827F11D1FB689B68B3F5004F04D0FB6832
:103324009B68B3F5806F07D1FB681B681A68FB685C
:103334001B6822F040021A60FB689B6AB3F5005FC9
:103344000FD1FB681B681A68FB681B6822F40052E3
:103354001A60FB681B681A68FB681B6842F4005219
:103364001A60FB68012283F85120FB68002283F86D
:103374005020032317E07B69002B01D10023FB615C
:103384007B69013B7B61FB681B689A68BB681340DF
:10339400BA689A420CBF01230023DBB21A46FB79B8
:1033A4009A429BD1002318462037BD4680BD00BFFA
:1033B4009C00002080B588B002AFF860B9607A60E4
:1033C4001B4B1B681B4AA2FB03235B0D4FF47A7251
:1033D40002FB03F37B61FB685B68B3F5827F12D168
:1033E4007B680093BB6800228021F868FFF75AFFCE
:1033F4000346002B16D0FB685B6D43F02002FB688C
:103404005A6503230FE07B69002B0AD07B69013BDB
:103414007B61FB681B689B6803F08003802BF2D000
:1034240000E000BF002318461837BD4680BD00BF2A
:103434009C000020819F5E1680B586B000AF786046
:10344400354B1B68354AA2FB03235B0A642202FB4B
:1034540003F33B61FDF7F0FF78617B681B685A68F2
:103464007B681B6822F020025A603B69002B06D15E
:103474007B685B6D43F020027B685A6509E03B6919
:10348400013B3B617B681B689B6803F00203002BD4
:10349400EBD07A6964217868FFF78CFF0346002B30
:1034A40005D07B685B6D43F020027B685A657B68BE
:1034B4009B68002B0AD10023FB607B681B68DB68D8
:1034C400FB607B681B689B68FB60FB687B685B6DCB
:1034D400002B15D17B6893F85130DBB2042B07D154
:1034E4007B68012283F851207868FFF7F1FD0EE034
:1034F4007B68012283F851207868FDF7CBFC06E055
:103504007B68012283F851207868FFF7EBFD00BF48
:103514001837BD4680BD00BF9C000020F119760518
:1035240080B582B000AF78607B68002B01D10123A5
:1035340041E07B6893F83D30DBB2002B06D17B6819
:10354400002283F83C207868FDF716FE7B6802228F
:1035540083F83D207B681A687B680433194610465B
:1035640000F088FA7B68012283F846207B680122F8
:1035740083F83E207B68012283F83F207B68012288
:1035840083F840207B68012283F841207B68012274
:1035940083F842207B68012283F843207B68012260
:1035A40083F844207B68012283F845207B6801224C
:1035B40083F83D20002318460837BD4680BD00002F
:1035C40080B485B000AF78607B6893F83D30DBB29F
:1035D400012B01D0012344E07B68022283F83D20C3
:1035E4007B681B68DA687B681B6842F00102DA605A
:1035F4007B681B681E4A934218D07B681B68B3F132
:10360400804F13D07B681B681A4A93420ED07B68A4
:103614001B68194A934209D07B681B68174A934276
:1036240004D07B681B68164A934211D17B681B68DF
:103634009B6803F00703FB60FB68062B10D07B68D4
:103644001B681A687B681B6842F001021A6007E075
:103654007B681B681A687B681B6842F001021A6069
:10366400002318461437BD465DF8047B704700BF3D
:10367400000001400004004000080040000C00402D
:103684000040014080B582B000AF78607B681B6861
:103694001B6903F00203022B22D17B681B68DB68E1
:1036A40003F00203022B1BD17B681B686FF002023C
:1036B4001A617B6801221A777B681B689B6903F097
:1036C4000303002B03D0786800F0B5F905E07868AF
:1036D40000F0A7F9786800F0B8F97B6800221A773F
:1036E4007B681B681B6903F00403042B22D17B68ED
:1036F4001B68DB6803F00403042B1BD17B681B6885
:103704006FF004021A617B6802221A777B681B68D7
:103714009B6903F44073002B03D0786800F08BF9A5
:1037240005E0786800F07DF9786800F08EF97B6830
:1037340000221A777B681B681B6903F00803082BB7
:1037440022D17B681B68DB6803F00803082B1BD1BC
:103754007B681B686FF008021A617B6804221A7781
:103764007B681B68DB6903F00303002B03D07868D4
:1037740000F061F905E0786800F053F9786800F02A
:1037840064F97B6800221A777B681B681B6903F065
:103794001003102B22D17B681B68DB6803F0100335
:1037A400102B1BD17B681B686FF010021A617B68B9
:1037B40008221A777B681B68DB6903F44073002BCB
:1037C40003D0786800F037F905E0786800F029F94B
:1037D400786800F03AF97B6800221A777B681B68E6
:1037E4001B6903F00103012B0ED17B681B68DB68A6
:1037F40003F00103012B07D17B681B686FF0010202
:103804001A617868FDF7E8FA7B681B681B6903F0A6
:103814008003802B0ED17B681B68DB6803F0800378
:10382400802B07D17B681B686FF080021A6178686F
:1038340000F0B2FA7B681B681B6903F04003402B5D
:103844000ED17B681B68DB6803F04003402B07D173
:103854007B681B686FF040021A61786800F0FFF81B
:103864007B681B681B6903F02003202B0ED17B6847
:103874001B68DB6803F02003202B07D17B681B68DF
:103884006FF020021A61786800F07CFA00BF0837F4
:10389400BD4680BD80B584B000AF78603960002338
:1038A400FB737B6893F83C30012B01D10223B4E015
:1038B4007B68012283F83C207B68022283F83D2048
:1038C4007B681B689B68BB60BB6823F07703BB60A5
:1038D400BB6823F47F43BB607B681B68BA689A604B
:1038E4003B681B68B3F5005F3ED0B3F5005F00F2A0
:1038F4008780B3F5805F00F08680B3F5805F7FD862
:10390400702B1AD0702B7BD8602B50D0602B77D8BB
:10391400502B3CD0502B73D8402B58D0402B6FD811
:10392400302B64D0302B6BD8202B60D0202B67D861
:10393400002B5CD0102B5AD062E07B6818683B687F
:1039440099683B685A683B68DB6800F08DF97B68CE
:103954001B689B68BB60BB6843F07703BB607B68F4
:103964001B68BA689A604FE07B6818683B6899687E
:103974003B685A683B68DB6800F076F97B681B6833
:103984009A687B681B6842F480429A603CE07B68DA
:1039940018683B6859683B68DB681A4600F0EAF827
:1039A4007B681B685021184600F043F92CE07B68C3
:1039B40018683B6859683B68DB681A4600F009F9E7
:1039C4007B681B686021184600F033F91CE07B68B3
:1039D40018683B6859683B68DB681A4600F0CAF807
:1039E4007B681B684021184600F023F90CE07B68D3
:1039F4001A683B681B681946104600F01AF903E080
:103A04000123FB7300E000BF7B68012283F83D20A3
:103A14007B68002283F83C20FB7B18461037BD46A8
:103A240080BD80B483B000AF786000BF0C37BD4662
:103A34005DF8047B704780B483B000AF786000BF4A
:103A44000C37BD465DF8047B704780B483B000AF8B
:103A5400786000BF0C37BD465DF8047B704780B4C6
:103A640083B000AF786000BF0C37BD465DF8047BBF
:103A74007047000080B485B000AF786039607B681F
:103A84001B68FB607B68344A93420FD07B68B3F1B8
:103A9400804F0BD07B68314A934207D07B68304A11
:103AA400934203D07B682F4A934208D1FB6823F0EA
:103AB4007003FB603B685B68FA681343FB607B68D8
:103AC400254A93421BD07B68B3F1804F17D07B68A3
:103AD400224A934213D07B68214A93420FD07B68D9
:103AE400204A93420BD07B681F4A934207D07B68DD
:103AF4001E4A934203D07B681D4A934208D1FB6857
:103B040023F44073FB603B68DB68FA681343FB6093
:103B1400FB6823F080023B685B691343FB607B68AE
:103B2400FA681A603B689A687B68DA623B681A68CC
:103B34007B689A627B68084A934203D13B681A699E
:103B44007B681A637B6801225A6100BF1437BD4643
:103B54005DF8047B704700BF000001400004004092
:103B640000080040000C00400040014000440140B7
:103B74000048014080B487B000AFF860B9607A6053
:103B8400FB681B6A7B61FB681B6A23F00102FB680C
:103B94001A62FB689B693B613B6923F0F0033B615C
:103BA4007B681B013A6913433B617B6923F00A0379
:103BB4007B617A69BB6813437B61FB683A699A61EC
:103BC400FB687A691A6200BF1C37BD465DF8047B46
:103BD400704780B487B000AFF860B9607A60FB6862
:103BE4001B6A23F01002FB681A62FB689B697B6105
:103BF400FB681B6A3B617B6923F470437B617B68D0
:103C04001B037A6913437B613B6923F0A0033B6187
:103C1400BB681B013A6913433B61FB687A699A618B
:103C2400FB683A691A6200BF1C37BD465DF8047B25
:103C3400704780B485B000AF786039607B689B685A
:103C4400FB60FB6823F07003FB603A68FB68134376
:103C540043F00703FB607B68FA689A6000BF14377F
:103C6400BD465DF8047B704780B487B000AFF86050
:103C7400B9607A603B60FB689B687B617B6923F475
:103C84007F437B613B681A027B681A43BB6813431A
:103C94007A6913437B61FB687A699A6000BF1C37B9
:103CA400BD465DF8047B704780B485B000AF786092
:103CB40039607B6893F83C30012B01D1022350E03A
:103CC4007B68012283F83C207B68022283F83D2034
:103CD4007B681B685B68FB607B681B689B68BB60D8
:103CE400FB6823F07003FB603B681B68FA681343AE
:103CF400FB607B681B68FA685A607B681B681C4A17
:103D0400934218D07B681B68B3F1804F13D07B6853
:103D14001B68184A93420ED07B681B68164A93426C
:103D240009D07B681B68154A934204D07B681B68E2
:103D3400134A93420CD1BB6823F08003BB603B68F9
:103D44005B68BA681343BB607B681B68BA689A6097
:103D54007B68012283F83D207B68002283F83C20A5
:103D6400002318461437BD465DF8047B704700BF36
:103D7400000001400004004000080040000C004026
:103D84000040014080B483B000AF786000BF0C37BE
:103D9400BD465DF8047B704780B483B000AF7860A3
:103DA40000BF0C37BD465DF8047B704780B582B018
:103DB40000AF78607B68002B01D101233FE07B6872
:103DC40093F83D30DBB2002B06D17B68002283F8E8
:103DD4003C207868FDF7F6F97B68242283F83D20BF
:103DE4007B681B68DA687B681B6822F40052DA601F
:103DF400786800F07BFC7B681B681A697B681B6829
:103E040022F490421A617B681B685A697B681B68BC
:103E140022F02A025A617B681B68DA687B681B6897
:103E240042F40052DA607B6800221A647B68202224
:103E340083F83D207B68202283F83E200023184627
:103E44000837BD4680BD000080B5BAB000AF7860C9
:103E54007B681B681B68C7F8E4307B681B68DB68F9
:103E6400C7F8E0307B681B685B69C7F8DC30002367
:103E7400C7F8D8300023C7F8D430D7F8E43003F0BB
:103E84000F03C7F8D830D7F8D830002B0FD1D7F8A4
:103E9400E43003F02003002B09D0D7F8E03003F01E
:103EA4002003002B03D0786800F065FB56E2D7F8B6
:103EB400D830002B00F0DE80D7F8DC3003F00103AB
:103EC400002B06D1D7F8E03003F49073002B00F0F8
:103ED400D180D7F8E43003F00103002B0BD0D7F8DE
:103EE400E03003F48073002B05D07B681B6C43F037
:103EF40001027B681A64D7F8E43003F00403002B52
:103F04000BD0D7F8DC3003F00103002B05D07B681D
:103F14001B6C43F002027B681A64D7F8E43003F0A8
:103F24000203002B0BD0D7F8DC3003F00103002B85
:103F340005D07B681B6C43F004027B681A64D7F8D5
:103F4400E43003F00803002B11D0D7F8E03003F07D
:103F54002003002B05D1D7F8DC3003F00103002B3C
:103F640005D07B681B6C43F008027B681A647B688D
:103F74001B6C002B00F0ED81D7F8E43003F0200334
:103F8400002B08D0D7F8E03003F02003002B02D038
:103F9400786800F0F0FA7B681B685B6903F0400303
:103FA400402B0CBF01230023DBB2C7F8D4307B685D
:103FB4001B6C03F00803002B03D1D7F8D430002B7B
:103FC4004FD0786800F0F8F97B681B685B6903F0F0
:103FD4004003402B41D17B681B681433C7F89C30E5
:103FE400D7F89C3053E8003FC7F89830D7F898309A
:103FF40023F04003C7F8D0307B681B681433D7F82C
:10400400D020C7F8A820C7F8A430D7F8A410D7F850
:10401400A82041E80023C7F8A030D7F8A030002B2F
:10402400D9D17B689B6B002B13D07B689B6B7D4A3B
:104034001A657B689B6B1846FDF7AFFB0346002BA4
:1040440016D07B689B6B1B6D7A68926B1046984701
:104054000EE0786800F09AF90AE0786800F096F9C2
:1040640006E0786800F092F97B6800221A6470E137
:1040740000BF6EE17B681B6B012B40F04A81D7F8CF
:10408400E43003F01003002B00F04381D7F8E03054
:1040940003F01003002B00F03C810023BB607B681D
:1040A4001B681B68BB607B681B685B68BB60BB6884
:1040B4007B681B685B6903F04003402B40F0B480CD
:1040C4007B689B6B1B685B68A7F8BE30B7F8BE3093
:1040D400002B00F040817B689B8DB7F8BE209A428C
:1040E40080F039817B68B7F8BE20DA857B689B6BEA
:1040F400DB69B3F5807F00F088807B681B680C3334
:10410400C7F88830D7F8883053E8003FC7F88430C0
:10411400D7F8843023F48073C7F8B8307B681B6801
:104124000C33D7F8B820C7F89420C7F89030D7F8E4
:104134009010D7F8942041E80023C7F88C30D7F8C2
:104144008C30002BD9D17B681B6814337B677B6F61
:1041540053E8003F3B673B6F23F00103C7F8B430DB
:104164007B681B681433D7F8B420C7F88020FB673A
:10417400F96FD7F8802041E80023BB67BB6F002BA1
:10418400E1D17B681B6814333B663B6E53E8003F08
:10419400FB65FB6D23F04003C7F8B0307B681B68F8
:1041A4001433D7F8B020FA66BB66B96EFA6E41E8EC
:1041B40000237B667B6E002BE3D17B68202283F88F
:1041C4003E207B6800221A637B681B680C33FB6407
:1041D400FB6C53E8003FBB64BB6C23F01003C7F8CF
:1041E400AC307B681B680C33D7F8AC20BA657B65B0
:1041F400796DBA6D41E800233B653B6D002BE3D13B
:104204007B689B6B1846FDF758FA7B689A8D7B6830
:10421400DB8D9BB2D31A9BB21946786800F0C0F8C4
:1042240099E000BF834400087B689A8D7B68DB8D2E
:104234009BB2D31AA7F8CE307B68DB8D9BB2002BE0
:1042440000F08B80B7F8CE30002B00F086807B68BE
:104254001B680C33BB63BB6B53E8003F7B637B6B16
:1042640023F49073C7F8C8307B681B680C33D7F805
:10427400C8207A643B64396C7A6C41E80023FB63A0
:10428400FB6B002BE3D17B681B6814337B627B6A76
:1042940053E8003F3B623B6A23F00103C7F8C43094
:1042A4007B681B681433D7F8C4203A63FB62F96A4D
:1042B4003A6B41E80023BB62BB6A002BE3D17B6805
:1042C400202283F83E207B6800221A637B681B68E7
:1042D4000C333B613B6953E8003FFB60FB6823F010
:1042E4001003C7F8C0307B681B680C33D7F8C020B4
:1042F400FA61BB61B969FA6941E800237B617B69B2
:10430400002BE3D1B7F8CE301946786800F048F8AE
:1043140023E0D7F8E43003F08003002B09D0D7F86A
:10432400E03003F08003002B03D0786800F0BBF882
:1043340014E0D7F8E43003F04003002B0ED0D7F894
:10434400E03003F04003002B08D0786800F0FBF85D
:1043540004E000BF02E000BF00E000BFE837BD4654
:1043640080BD00BF80B483B000AF786000BF0C375D
:10437400BD465DF8047B704780B483B000AF7860BD
:1043840000BF0C37BD465DF8047B704780B483B032
:1043940000AF786000BF0C37BD465DF8047B704702
:1043A40080B483B000AF78600B467B8000BF0C37CD
:1043B400BD465DF8047B704780B495B000AF78606B
:1043C4007B681B680C337B637B6B53E8003F3B6368
:1043D4003B6B23F49073FB647B681B680C33FA6CAF
:1043E4003A64FB63F96B3A6C41E80023BB63BB6B33
:1043F400002BE5D17B681B6814333B623B6A53E8AE
:10440400003FFB61FB6923F00103BB647B681B680D
:104414001433BA6CFA62BB62B96AFA6A41E80023DF
:104424007B627B6A002BE5D17B681B6B012B19D166
:104434007B681B680C33FB60FB6853E8003FBB6080
:10444400BB6823F010037B647B681B680C337A6CB5
:10445400BA617B617969BA6941E800233B613B69D0
:10446400002BE5D17B68202283F83E207B68002264
:104474001A6300BF5437BD465DF8047B704780B5AE
:1044840084B000AF78607B689B6BFB60FB680022A4
:10449400DA85FB680022DA84F868FFF777FF00BF4B
:1044A4001037BD4680BD80B485B000AF78607B68AE
:1044B40093F83D30DBB2212B3ED17B689B68B3F58A
:1044C400805F14D17B681B69002B10D17B681B6A49
:1044D400FB60FB681B881A467B681B68C2F30802F2
:1044E4005A607B681B6A9A1C7B681A6208E07B68C6
:1044F4001B6A591C7A6811621A787B681B685A60B7
:104504007B68DB8C9BB2013B9BB27A681946D184F1
:10451400002B0FD17B681B68DA687B681B6822F06C
:104524008002DA607B681B68DA687B681B6842F08B
:104534004002DA60002300E0022318461437BD4627
:104544005DF8047B704780B582B000AF78607B680B
:104554001B68DA687B681B6822F04002DA607B68BB
:10456400202283F83D207868FFF7FCFE00231846DC
:104574000837BD4680BD80B58CB000AF78607B68DD
:1045840093F83E30DBB2222B40F0AB807B689B6813
:10459400B3F5805F17D17B681B69002B13D100230F
:1045A400FB627B689B6ABB627B681B685B689BB22F
:1045B400C3F308039AB2BB6A1A807B689B6A9A1C8D
:1045C4007B689A6226E07B689B6AFB620023BB627D
:1045D4007B689B68B3F5805F07D07B689B68002B82
:1045E4000AD17B681B69002B06D17B681B685B685A
:1045F400DAB2FB6A1A7008E07B681B685B68DBB29E
:1046040003F07F03DAB2FB6A1A707B689B6A5A1C58
:104614007B689A627B68DB8D9BB2013B9BB27A68B4
:104624001946D185002B5AD17B681B68DA687B68F0
:104634001B6822F02002DA607B681B68DA687B68FA
:104644001B6822F48072DA607B681B685A697B6895
:104654001B6822F001025A617B68202283F83E2005
:104664007B681B6B012B35D17B6800221A637B6846
:104674001B680C337B617B6953E8003F3B613B69FA
:1046840023F010037B627B681B680C337A6A3A62FE
:10469400FB61F9693A6A41E80023BB61BB69002BFD
:1046A400E5D17B681B681B6803F01003102B0AD14B
:1046B4000023FB607B681B681B68FB607B681B68CE
:1046C4005B68FB60FB687B689B8D19467868FFF725
:1046D40067FE02E07868FFF74FFE002302E0002344
:1046E40000E0022318463037BD4680BD2DE9B04FA7
:1046F400C0B000AFC7F8F400D7F8F4301B681B69EA
:1047040023F44050D7F8F430D968D7F8F4301A6855
:1047140040EA01031361D7F8F4309A68D7F8F4300B
:104724001B691A43D7F8F4305B691A43D7F8F4309D
:10473400DB691343C7F8F830D7F8F4301B68DB683B
:1047440023F4164121F00C01D7F8F4301A68D7F895
:10475400F8300B43D360D7F8F4301B685B6923F45B
:104764004070D7F8F4309969D7F8F4301A6840EA01
:1047740001035361D7F8F4301A688F4B9A4205D07D
:10478400D7F8F4301A688D4B9A4204D1FEF76EFACA
:10479400C7F8FC0003E0FEF755FAC7F8FC00D7F8A9
:1047A400F430DB69B3F5004F40F00C81D7F8FC30EE
:1047B4000022C7F8E830C7F8EC20D7E93A4522468A
:1047C4002B469118B9655B41FB65D7E91623214651
:1047D40012EB0108294643EB01094FF000024FF0A8
:1047E40000034FEAC90343EA58734FEAC8029046EC
:1047F4009946234618EB0303C7F8E0302B4649EBF0
:104804000303C7F8E430D7F8F4305B680022C7F834
:10481400D830C7F8DC20D7E936120B46DB183B65E5
:10482400134642EB03037B65D7E91423D7E9380128
:10483400FBF7CEFC02460B46614BA3FB02235B094C
:104844001C01D7F8FC300022C7F8D030C7F8D420B8
:10485400D7E9348942464B469118B9645B41FB64FD
:10486400D7E91223414612EB010A494643EB010BF7
:104874004FF000024FF000034FEACB0343EA5A73B0
:104884004FEACA0292469B4643461AEB0303C7F813
:10489400C8304B464BEB0303C7F8CC30D7F8F430A1
:1048A4005B680022C7F8C030C7F8C420D7E93012CB
:1048B4000B46DB183B64134642EB03037B64D7E9E6
:1048C4001023D7E93201FBF783FC02460B4611465D
:1048D4003B4BA3FB01235B09642202FB03F3CB1ACA
:1048E400DB0003F13202364BA3FB02235B095B00BE
:1048F40003F4F8731C44D7F8FC300022C7F8B8302E
:10490400C7F8BC20D7E92E8942464B469118B963B3
:104914005B41FB63D7E90E2341465118396349468D
:104924004B417B634FF000024FF00003D7E90CAB1F
:104934005946CB00514643EA51735146CA001046CA
:104944001946034642469B18C7F8B0304B460A4600
:1049540042EB0303C7F8B430D7F8F4305B680022A5
:10496400C7F8A830C7F8AC20D7E92A120B46DB18E1
:10497400BB62134642EB0303FB62D7E90A23D7E980
:104984002C01FBF725FC02460B460D4BA3FB02133F
:104994005B09642101FB03F3D31ADB003233084AB9
:1049A400A2FB03235B0903F00702D7F8F4301B686A
:1049B40022449A6005E100BF001001400014014048
:1049C4001F85EB51D7F8FC300022C7F8A030C7F898
:1049D400A420D7E9288942464B46911839625B41A5
:1049E4007B62D7E9082341465418494643EB010545
:1049F4004FF000024FF00003EB0043EA5473E2006F
:104A040014461D464346E318C7F898304B4645EB19
:104A14000303C7F89C30D7F8F4305B680022C7F86A
:104A24009030C7F894204FF000024FF00003D7E90C
:104A3400244529468B00214643EA917321468A0086
:104A4400D7E92601FBF7C4FB02460B46604BA3FBE8
:104A540002235B091C01D7F8FC300022C7F8883018
:104A6400C7F88C20D7E9228942464B469118B96190
:104A74005B41FB61D7E90623414651183961494638
:104A84004B417B614FF000024FF00003D7E904ABC8
:104A94005946CB00514643EA51735146CA00104669
:104AA4001946034642469B18C7F880304B460A46CF
:104AB40042EB0303C7F88430D7F8F4305B68002274
:104AC400BB67FA674FF000024FF00003D7E91E8975
:104AD40049468B00414643EA917341468A00D7E92F
:104AE4002001FBF775FB02460B46394BA3FB02136F
:104AF4005B09642101FB03F3D31A1B013233344AEB
:104B0400A2FB03235B0903F0F0031C44D7F8FC3039
:104B140000223B677A67D7E91C8942464B469118C5
:104B2400B9605B41FB60D7E9022341465118396003
:104B340049464B417B604FF000024FF00003D7E938
:104B440000AB5946CB00514643EA51735146CA0063
:104B540010461946034642469B18BB664B460A4616
:104B640042EB0303FB66D7F8F4305B6800223B6634
:104B74007A664FF000024FF00003D7E918894946DE
:104B84008B00414643EA917341468A00D7E91A01F2
:104B9400FBF71EFB02460B460D4BA3FB02135B09FE
:104BA400642101FB03F3D31A1B013233084AA2FB2D
:104BB40003235B0903F00F02D7F8F4301B68224487
:104BC4009A6000BF07F58077BD46BDE8B08F00BF8F
:104BD4001F85EB5170B50D4D0D4C641BA4100026C0
:104BE400A64209D10B4D0C4C00F020F8641BA41014
:104BF4000026A64205D170BD55F8043B98470136FE
:104C0400EEE755F8043B98470136F2E7784C000884
:104C1400784C0008784C00087C4C00080244034699
:104C2400934200D1704703F8011BF9E7F8B500BFC0
:104C3400F8BC08BC9E467047F8B500BFF8BC08BC79
:044C44009E467047D1
:104C480000000000400000001400000054000000B4
:104C58000000000000000000010203040607080924
:084C680000000000010203043A
:084C700094B5FF7F0100000074
:044C7800B901000876
:044C7C009501000896
:104C800000191B060C1B130018180609080906005A
:104C90002020202020202020202020202020202014
:104CA0002020202020202020202020202020202004
:104CB00000000000000000000000000000000000F4
:104CC000FF00000020202020202020202020202065
:104CD00020202020202020202020202020202020D4
:104CE0002020202000000000000000000000000044
:104CF00000000000FF0000005374617274696E6769
:104D00002E2E2E2020202020202020202020202079
:104D10002020202020202020000000000024F4007B
:084D200010000000010000007A
:040000050800131DBF
:00000001FF
